{"abi":[{"type":"constructor","inputs":[{"name":"priceFeed","type":"address","internalType":"address"}],"stateMutability":"nonpayable"},{"type":"fallback","stateMutability":"payable"},{"type":"receive","stateMutability":"payable"},{"type":"function","name":"c_MINIMUM_USD","inputs":[],"outputs":[{"name":"","type":"uint256","internalType":"uint256"}],"stateMutability":"view"},{"type":"function","name":"cheaperWithdraw","inputs":[],"outputs":[],"stateMutability":"nonpayable"},{"type":"function","name":"fund","inputs":[],"outputs":[],"stateMutability":"payable"},{"type":"function","name":"getAddressToAmountFunded","inputs":[{"name":"fundingAddress","type":"address","internalType":"address"}],"outputs":[{"name":"","type":"uint256","internalType":"uint256"}],"stateMutability":"view"},{"type":"function","name":"getFunder","inputs":[{"name":"index","type":"uint256","internalType":"uint256"}],"outputs":[{"name":"","type":"address","internalType":"address"}],"stateMutability":"view"},{"type":"function","name":"getOwner","inputs":[],"outputs":[{"name":"","type":"address","internalType":"address"}],"stateMutability":"view"},{"type":"function","name":"getPriceFeed","inputs":[],"outputs":[{"name":"","type":"address","internalType":"contract AggregatorV3Interface"}],"stateMutability":"view"},{"type":"function","name":"getVersion","inputs":[],"outputs":[{"name":"","type":"uint256","internalType":"uint256"}],"stateMutability":"view"},{"type":"function","name":"withdraw","inputs":[],"outputs":[],"stateMutability":"nonpayable"},{"type":"error","name":"NotOwner","inputs":[]}],"bytecode":{"object":"0x60c060405234801561000f575f5ffd5b506040516114f93803806114f9833981810160405281019061003191906100fd565b3373ffffffffffffffffffffffffffffffffffffffff1660808173ffffffffffffffffffffffffffffffffffffffff16815250508073ffffffffffffffffffffffffffffffffffffffff1660a08173ffffffffffffffffffffffffffffffffffffffff168152505050610128565b5f5ffd5b5f73ffffffffffffffffffffffffffffffffffffffff82169050919050565b5f6100cc826100a3565b9050919050565b6100dc816100c2565b81146100e6575f5ffd5b50565b5f815190506100f7816100d3565b92915050565b5f602082840312156101125761011161009f565b5b5f61011f848285016100e9565b91505092915050565b60805160a05161138d61016c5f395f818161020601528181610371015261068c01525f81816104030152818161058d0152818161065901526106b2015261138d5ff3fe608060405260043610610089575f3560e01c80639618f980116100585780639618f980146101485780639e87a5cd14610172578063b60d42881461019c578063be2693f0146101a6578063d7b4750c146101bc57610098565b80630343fb25146100a25780630d8e6e2c146100de5780633ccfd60b14610108578063893d20e81461011e57610098565b36610098576100966101f8565b005b6100a06101f8565b005b3480156100ad575f5ffd5b506100c860048036038101906100c39190610bcd565b610329565b6040516100d59190610c10565b60405180910390f35b3480156100e9575f5ffd5b506100f261036e565b6040516100ff9190610c10565b60405180910390f35b348015610113575f5ffd5b5061011c610401565b005b348015610129575f5ffd5b50610132610656565b60405161013f9190610c38565b60405180910390f35b348015610153575f5ffd5b5061015c61067d565b6040516101699190610c10565b60405180910390f35b34801561017d575f5ffd5b50610186610689565b6040516101939190610cac565b60405180910390f35b6101a46101f8565b005b3480156101b1575f5ffd5b506101ba6106b0565b005b3480156101c7575f5ffd5b506101e260048036038101906101dd9190610cef565b6108e5565b6040516101ef9190610c38565b60405180910390f35b674563918244f400006102347f00000000000000000000000000000000000000000000000000000000000000003461092990919063ffffffff16565b1015610275576040517f08c379a000000000000000000000000000000000000000000000000000000000815260040161026c90610d74565b60405180910390fd5b345f5f3373ffffffffffffffffffffffffffffffffffffffff1673ffffffffffffffffffffffffffffffffffffffff1681526020019081526020015f205f8282546102c09190610dbf565b92505081905550600133908060018154018082558091505060019003905f5260205f20015f9091909190916101000a81548173ffffffffffffffffffffffffffffffffffffffff021916908373ffffffffffffffffffffffffffffffffffffffff160217905550565b5f5f5f8373ffffffffffffffffffffffffffffffffffffffff1673ffffffffffffffffffffffffffffffffffffffff1681526020019081526020015f20549050919050565b5f7f000000000000000000000000000000000000000000000000000000000000000073ffffffffffffffffffffffffffffffffffffffff166354fd4d506040518163ffffffff1660e01b8152600401602060405180830381865afa1580156103d8573d5f5f3e3d5ffd5b505050506040513d601f19601f820116820180604052508101906103fc9190610e06565b905090565b7f000000000000000000000000000000000000000000000000000000000000000073ffffffffffffffffffffffffffffffffffffffff163373ffffffffffffffffffffffffffffffffffffffff1614610486576040517f30cd747100000000000000000000000000000000000000000000000000000000815260040160405180910390fd5b5f4790505f5f90505b60018054905081101561052a575f600182815481106104b1576104b0610e31565b5b905f5260205f20015f9054906101000a900473ffffffffffffffffffffffffffffffffffffffff1690505f5f5f8373ffffffffffffffffffffffffffffffffffffffff1673ffffffffffffffffffffffffffffffffffffffff1681526020019081526020015f208190555050808060010191505061048f565b505f67ffffffffffffffff81111561054557610544610e5e565b5b6040519080825280602002602001820160405280156105735781602001602082028036833780820191505090505b5060019080519060200190610589929190610acd565b505f7f000000000000000000000000000000000000000000000000000000000000000073ffffffffffffffffffffffffffffffffffffffff16826040516105cf90610eb8565b5f6040518083038185875af1925050503d805f8114610609576040519150601f19603f3d011682016040523d82523d5f602084013e61060e565b606091505b5050905080610652576040517f08c379a000000000000000000000000000000000000000000000000000000000815260040161064990610f16565b60405180910390fd5b5050565b5f7f0000000000000000000000000000000000000000000000000000000000000000905090565b674563918244f4000081565b5f7f0000000000000000000000000000000000000000000000000000000000000000905090565b7f000000000000000000000000000000000000000000000000000000000000000073ffffffffffffffffffffffffffffffffffffffff163373ffffffffffffffffffffffffffffffffffffffff1614610735576040517f30cd747100000000000000000000000000000000000000000000000000000000815260040160405180910390fd5b5f60018054905090505f5f90505b818110156107d9575f600182815481106107605761075f610e31565b5b905f5260205f20015f9054906101000a900473ffffffffffffffffffffffffffffffffffffffff1690505f5f5f8373ffffffffffffffffffffffffffffffffffffffff1673ffffffffffffffffffffffffffffffffffffffff1681526020019081526020015f2081905550508080600101915050610743565b505f67ffffffffffffffff8111156107f4576107f3610e5e565b5b6040519080825280602002602001820160405280156108225781602001602082028036833780820191505090505b5060019080519060200190610838929190610acd565b505f3373ffffffffffffffffffffffffffffffffffffffff164760405161085e90610eb8565b5f6040518083038185875af1925050503d805f8114610898576040519150601f19603f3d011682016040523d82523d5f602084013e61089d565b606091505b50509050806108e1576040517f08c379a00000000000000000000000000000000000000000000000000000000081526004016108d890610f16565b60405180910390fd5b5050565b5f600182815481106108fa576108f9610e31565b5b905f5260205f20015f9054906101000a900473ffffffffffffffffffffffffffffffffffffffff169050919050565b5f5f61093483610998565b90505f61094084610a58565b90505f8160126109509190610f40565b600a61095c91906110a3565b8361096791906110ed565b90505f670de0b6b3a7640000878361097f91906110ed565b610989919061115b565b90508094505050505092915050565b5f5f8273ffffffffffffffffffffffffffffffffffffffff1663feaf968c6040518163ffffffff1660e01b815260040160a060405180830381865afa1580156109e3573d5f5f3e3d5ffd5b505050506040513d601f19601f82011682018060405250810190610a0791906111fd565b5050509150505f8113610a4f576040517f08c379a0000000000000000000000000000000000000000000000000000000008152600401610a46906112e4565b60405180910390fd5b80915050919050565b5f8173ffffffffffffffffffffffffffffffffffffffff1663313ce5676040518163ffffffff1660e01b8152600401602060405180830381865afa158015610aa2573d5f5f3e3d5ffd5b505050506040513d601f19601f82011682018060405250810190610ac6919061132c565b9050919050565b828054828255905f5260205f20908101928215610b43579160200282015b82811115610b42578251825f6101000a81548173ffffffffffffffffffffffffffffffffffffffff021916908373ffffffffffffffffffffffffffffffffffffffff16021790555091602001919060010190610aeb565b5b509050610b509190610b54565b5090565b5b80821115610b6b575f815f905550600101610b55565b5090565b5f5ffd5b5f73ffffffffffffffffffffffffffffffffffffffff82169050919050565b5f610b9c82610b73565b9050919050565b610bac81610b92565b8114610bb6575f5ffd5b50565b5f81359050610bc781610ba3565b92915050565b5f60208284031215610be257610be1610b6f565b5b5f610bef84828501610bb9565b91505092915050565b5f819050919050565b610c0a81610bf8565b82525050565b5f602082019050610c235f830184610c01565b92915050565b610c3281610b92565b82525050565b5f602082019050610c4b5f830184610c29565b92915050565b5f819050919050565b5f610c74610c6f610c6a84610b73565b610c51565b610b73565b9050919050565b5f610c8582610c5a565b9050919050565b5f610c9682610c7b565b9050919050565b610ca681610c8c565b82525050565b5f602082019050610cbf5f830184610c9d565b92915050565b610cce81610bf8565b8114610cd8575f5ffd5b50565b5f81359050610ce981610cc5565b92915050565b5f60208284031215610d0457610d03610b6f565b5b5f610d1184828501610cdb565b91505092915050565b5f82825260208201905092915050565b7f596f75206e65656420746f207370656e64206d6f7265204554482100000000005f82015250565b5f610d5e601b83610d1a565b9150610d6982610d2a565b602082019050919050565b5f6020820190508181035f830152610d8b81610d52565b9050919050565b7f4e487b71000000000000000000000000000000000000000000000000000000005f52601160045260245ffd5b5f610dc982610bf8565b9150610dd483610bf8565b9250828201905080821115610dec57610deb610d92565b5b92915050565b5f81519050610e0081610cc5565b92915050565b5f60208284031215610e1b57610e1a610b6f565b5b5f610e2884828501610df2565b91505092915050565b7f4e487b71000000000000000000000000000000000000000000000000000000005f52603260045260245ffd5b7f4e487b71000000000000000000000000000000000000000000000000000000005f52604160045260245ffd5b5f81905092915050565b50565b5f610ea35f83610e8b565b9150610eae82610e95565b5f82019050919050565b5f610ec282610e98565b9150819050919050565b7f43616c6c206661696c65640000000000000000000000000000000000000000005f82015250565b5f610f00600b83610d1a565b9150610f0b82610ecc565b602082019050919050565b5f6020820190508181035f830152610f2d81610ef4565b9050919050565b5f60ff82169050919050565b5f610f4a82610f34565b9150610f5583610f34565b9250828203905060ff811115610f6e57610f6d610d92565b5b92915050565b5f8160011c9050919050565b5f5f8291508390505b6001851115610fc957808604811115610fa557610fa4610d92565b5b6001851615610fb45780820291505b8081029050610fc285610f74565b9450610f89565b94509492505050565b5f82610fe1576001905061109c565b81610fee575f905061109c565b8160018114611004576002811461100e5761103d565b600191505061109c565b60ff8411156110205761101f610d92565b5b8360020a91508482111561103757611036610d92565b5b5061109c565b5060208310610133831016604e8410600b84101617156110725782820a90508381111561106d5761106c610d92565b5b61109c565b61107f8484846001610f80565b9250905081840481111561109657611095610d92565b5b81810290505b9392505050565b5f6110ad82610bf8565b91506110b883610f34565b92506110e57fffffffffffffffffffffffffffffffffffffffffffffffffffffffffffffffff8484610fd2565b905092915050565b5f6110f782610bf8565b915061110283610bf8565b925082820261111081610bf8565b9150828204841483151761112757611126610d92565b5b5092915050565b7f4e487b71000000000000000000000000000000000000000000000000000000005f52601260045260245ffd5b5f61116582610bf8565b915061117083610bf8565b9250826111805761117f61112e565b5b828204905092915050565b5f69ffffffffffffffffffff82169050919050565b6111a98161118b565b81146111b3575f5ffd5b50565b5f815190506111c4816111a0565b92915050565b5f819050919050565b6111dc816111ca565b81146111e6575f5ffd5b50565b5f815190506111f7816111d3565b92915050565b5f5f5f5f5f60a0868803121561121657611215610b6f565b5b5f611223888289016111b6565b9550506020611234888289016111e9565b945050604061124588828901610df2565b935050606061125688828901610df2565b9250506080611267888289016111b6565b9150509295509295909350565b7f50726963654665656420646964206e6f742072657475726e206120706f7369745f8201527f6976652070726963652e00000000000000000000000000000000000000000000602082015250565b5f6112ce602a83610d1a565b91506112d982611274565b604082019050919050565b5f6020820190508181035f8301526112fb816112c2565b9050919050565b61130b81610f34565b8114611315575f5ffd5b50565b5f8151905061132681611302565b92915050565b5f6020828403121561134157611340610b6f565b5b5f61134e84828501611318565b9150509291505056fea26469706673582212207370cf6aae23ea539cb73dcfa19a396fef9b17bb426aedc9ba23412b16f2123b64736f6c634300081e0033","linkReferences":{}},"methodIdentifiers":{"c_MINIMUM_USD()":"9618f980","cheaperWithdraw()":"be2693f0","fund()":"b60d4288","getAddressToAmountFunded(address)":"0343fb25","getFunder(uint256)":"d7b4750c","getOwner()":"893d20e8","getPriceFeed()":"9e87a5cd","getVersion()":"0d8e6e2c","withdraw()":"3ccfd60b"},"id":1}